:030000000205FFF7
:03000B000203B736
:10000E00C00078B10000D8FCD00022C000C0017939
:10001E002D78A6D8FED9FADAF6D001D00022D2B3C6
:10002E0012000EC2B322A2E792B7A2E692B6A2E5E2
:10003E0092B5A2E492B412002C12000EA2E392B773
:10004E00A2E292B6A2E192B5A2E092B412002C22E4
:10005E00D2B2020034C2B2020034C2B37433120000
:10006E0063743312006374321200637428120063D7
:10007E00740C1200637401120063C0027A02120043
:10008E0019D00222E493600612005EA380F6224489
:10009E00404480020063C0E0E8C4540F44301200B4
:0C00AE005EE8540F443012005ED0E022E7
:1000BA00C0E0C0D0C000C001C002E4F53EF53FF583
:1000CA0040F541F5427A20E539A2E779047836E627
:1000DA0033F608D9FA7905783EE636D4F608D9F91E
:1000EA00DAE5D002D001D000D0D0D0E022C0E0C002
:1000FA00D0C000C001C002E4F53EF53FF540F5412D
:10010A00F5427A20E539A2E779047836E633F6082B
:10011A00D9FA7905783EC0D0E6243320E70224D004
:10012A0020E30224FDD0D033F608D9EADAD6D00289
:10013A00D001D000D0D0D0E022C0E0C0D0C000C0F2
:10014A0001C0027A207905C37842E613C0D030E7AD
:10015A000224D030E30224FDF618D0D0D9EC790479
:10016A007839E613F618D9FADADBD002D001D000D2
:10017A00D0D0D0E022C0E0C0D0E536253AF536E549
:10018A0037353BF537E538353CF538E539353DF552
:10019A0039D0D0D0E022C0E0C0D0C3E536953AF5D8
:1001AA0036E537953BF537E538953CF538E5399529
:1001BA003DF539D0D0D0E022C0E0C0D0C3E53695B5
:1001CA003AE537953BE538953CE539953D9201D0BE
:1001DA00D0D0E022C0E0C0D0C3E53A9536E53B95E1
:1001EA0037E53C9538E53D95399201D0D0D0E022EB
:1001FA00C0E0C0D0C201C3E53A95367014E53B951C
:10020A0037700EE53C95387008E53D95397002D295
:10021A0001D0D0D0E0221201FA2001030201DE222D
:10022A001201FA2001030201C222C0E0C0F0C0D0CC
:10023A00C000C001C002C003E536853AF0A4F8A99F
:10024A00F0E537853AF0A429F9E435F0FAE5368580
:10025A003BF0A429F9E5F03AFAE433FBE538853AAC
:10026A00F0A42AFAE5F03BFBE537853BF0A42AFA2D
:10027A00E5F03BFBE536853CF0A42AFAE5F03BFBCA
:10028A00E539853AF0A42BFBE538853BF0A42BFB36
:10029A00E537853CF0A42BFBE536853DF0A42BFB26
:1002AA008B398A3889378836D003D002D001D000FA
:1002BA00D0D0D0F0D0E022C0E0C0D0C000C001C091
:1002CA0002C003C0047C20E4F8F9FAFBC3E5363324
:1002DA00F536E53733F537E53833F538E53933F5AB
:1002EA0039E833F8E933F9EA33FAEB33FBC3E89533
:1002FA003AE9953BEA953CEB953D4013E8953AF887
:10030A00E9953BF9EA953CFAEB953DFB433601DC6E
:10031A00BBD004D003D002D001D000D0D0D0E0228C
:10032A0085363A85373B85383C85393D22E536C5E1
:10033A003AF536E537C53BF537E538C53CF538E5D6
:06034A0039C53DF5392222
:10035000506C6179657220413A20202020202020B5
:1003600000506C6179657220423A202020202020C4
:1003700020007465737400506C61796572204120AF
:1003800057696E00506C6179657220422057696E22
:10039000007AB079FA78A6D8FED9FADAF622E58999
:1003A00054F04401F589758CEA758AE875F4EA75AC
:1003B000F2E8D2A9D28C22B2913275C80075CB0076
:1003C00075CA0022E4780079007A007B10E5CC330E
:1003D000F5CCE5CD33F5CDE838D4F8E939D4F9EAF0
:1003E0003AD4FADBE822EA540F443012005EE9C442
:1003F000540F443012005EE9540F443012005EE89E
:10040000C4540F443012005EE8540F443012005EB2
:1004100022854336854437854538854639753AFD0A
:10042000753B43753C03753D00120234753AC37544
:100430003B9E753C26753D0085364385374485389F
:100440004585394622C002AA43120019D002C002D3
:10045000AA44120019D002C002AA45120019D00203
:10046000C002AA46120019D00222D28C20C5FD85F6
:100470008C43754401754587858A46C28C22E534D4
:1004800020000460088004240180022499D4F534FB
:10049000E4C201D202C0E0740E1412009FD0E0C08A
:1004A00000A8341200A4D000E53475F005B5F01FA3
:1004B000E4C0E074011412009FD0E0C083C082C089
:1004C000E0900377120092D0E0D082D083800302C4
:1004D00005FCD28CC0027AFA120019D002C28CC07C
:1004E000027AFA120019D002D28CC0027AFA1200F3
:1004F00019D002C28CC0027AFA120019D002D28C32
:10050000C0027AFA120019D002C28CC0027AFA1222
:100510000019D002C0027AFF120019D002C0027A7C
:10052000FF120019D002C0027AFF120019D002C0D7
:10053000027AFF120019D00202067CE53520000481
:1005400060088004240180022499D4F535E4C201B6
:10055000D202C0E0740E1412009DD0E0C000A83595
:100560001200A4D000E53575F005B5F01FE4C0E039
:1005700074011412009DD0E0C083C082C0E09003DB
:1005800084120092D0E0D082D08380030205FCD296
:100590008CC0027AFA120019D002C28CC0027AFA18
:1005A000120019D002D28CC0027AFA120019D002BD
:1005B000C28CC0027AFA120019D002D28CC0027A20
:1005C000FA120019D002C28CC0027AFA120019D0B5
:1005D00002C0027AFF120019D002C0027AFF120094
:1005E00019D002C0027AFF120019D002C0027AFFAD
:1005F000120019D0021203BA1200682202067C759A
:10060000817F1205F512039E12046AC28CE4F58AFA
:10061000F58CD2AFD2A0D2A1C0E074011412009F19
:10062000D0E0C083C082C0E0900350120092D0E0BE
:10063000D082D083C0E074011412009DD0E0C0834A
:10064000C082C0E0900361120092D0E0D082D083DB
:10065000753400753500C0E0740E1412009FD0E0B0
:10066000C000A8341200A4D000C0E0740E14120020
:100670009DD0E0C000A8351200A4D000C200120432
:1006800011E544A2E39200120445C28C20000975D2
:10069000F4D575F2D002069E75F4EA75F2E8D28CB4
:1006A000C0027AFA120019D002C0027AFA120019B6
:1006B000D002C0027AFA120019D002C0027AFA12ED
:1006C0000019D002C28CC20220862C753400753508
:1006D00000C0E0740E1412009FD0E0C000A83412D5
:1006E00000A4D000C0E0740E1412009DD0E0C00041
:1006F000A8351200A4D000C2CA75CC0075CD002068
:10070000A0FD30A0FD7864D2CA20A0FD30A0FDD8A5
:10071000F8C2CA85CC3085CD3185CC3685CD3775CC
:100720003800753900753AE4753B57753C00753DE6
:10073000001201DE200102800302047EC2CA75CCD1
:100740000075CD0020A1FD30A1FD7864D2CA20A1A2
:10075000FD30A1FDD8F8C2CA85CC3285CD3385CC19
:100760003685CD37753800753900753AE0753B2E02
:10077000753C00753D001201DE2001028003020578
:0A0780003B2002030206C602067CBD
:00000001FF
