:030000000204F007
:03002B000204D8F4
:10002E00C0E0C0D0C000C001C002E4F538F539F51B
:10003E003AF53BF53C7A20E533A2E779047830E6D1
:10004E0033F608D9FA79057838E636D4F608D9F9B0
:10005E00DAE5D002D001D000D0D0D0E022C0E0C08E
:10006E00D0C000C001C002E4F538F539F53AF53BD1
:10007E00F53C7A20E533A2E779047830E633F608CA
:10008E00D9FA79057838C0D0E6243320E70224D097
:10009E0020E30224FDD0D033F608D9EADAD6D00216
:1000AE00D001D000D0D0D0E022C0E0C0D0C000C07F
:1000BE0001C0027A207905C3783CE613C0D030E740
:1000CE000224D030E30224FDF618D0D0D9EC790406
:1000DE007833E613F618D9FADADBD002D001D00065
:1000EE00D0D0D0E022C0E0C0D0E5302534F530E5E8
:1000FE00313535F531E5323536F532E5333537F50F
:10010E0033D0D0D0E022C0E0C0D0C3E5309534F576
:10011E0030E5319535F531E5329536F532E53395E5
:10012E0037F533D0D0D0E022C0E0C0D0C3E5309553
:10013E0034E5319535E5329536E53395379200D075
:10014E00D0D0E022C0E0C0D0C3E5349530E535957F
:10015E0031E5369532E53795339200D0D0D0E02296
:10016E00C0E0C0D0C200C3E53495307014E53595BB
:10017E0031700EE53695327008E53795337002D240
:10018E0000D0D0D0E02212016E20000302015222D4
:10019E0012016E20000302013622C0E0C0F0C0D072
:1001AE00C000C001C002C003E5308534F0A4F8A938
:1001BE00F0E5318534F0A429F9E435F0FAE530851F
:1001CE0035F0A429F9E5F03AFAE433FBE53285344B
:1001DE00F0A42AFAE5F03BFBE5318535F0A42AFAC6
:1001EE00E5F03BFBE5308536F0A42AFAE5F03BFB63
:1001FE00E5338534F0A42BFBE5328535F0A42BFBDB
:10020E00E5318536F0A42BFBE5308537F0A42BFBCA
:10021E008B338A3289318830D003D002D001D0009E
:10022E00D0D0D0F0D0E022C0E0C0D0C000C001C01D
:10023E0002C003C0047C20E4F8F9FAFBC3E53033B6
:10024E00F530E53133F531E53233F532E53333F55B
:10025E0033E833F8E933F9EA33FAEB33FBC3E895C5
:10026E0034E99535EA9536EB95374013E89534F831
:10027E00E99535F9EA9536FAEB9537FB433001DC13
:10028E00BBD004D003D002D001D000D0D0D0E02219
:10029E0085303485313585323685333722E530C5A4
:1002AE0034F530E531C535F531E532C536F532E593
:0602BE0033C537F53322C1
:1002C400C00078B10000D8FCD00022C000C0017981
:1002D4002D78A6D8FED9FADAF6D001D00022D2B30E
:1002E4001202C4C2B322A2E792B7A2E692B6A2E572
:1002F40092B5A2E492B41202E21202C4A2E392B74B
:10030400A2E292B6A2E192B5A2E092B41202E22273
:10031400D2B20202EAC2B20202EAC2B374331203D4
:10032400197433120319743212031974281203193D
:10033400740C1203197401120319C0027A02120216
:10034400CFD00222E4936006120314A380F6224461
:10035400404480020319C0E0E8C4540F443012033F
:1003640014E8540F4430120314D0E022506572692B
:100374006F6420286E73292020202020004E6F20D7
:100384007369676E616C2020202020202000467253
:10039400657175656E63792028487A2920200043A9
:1003A400617061636974616E636520286E4629001B
:1003B400576861747320706F7070696E67210020D4
:1003C400010A20025B30030302047822C0E07401B6
:1003D40014120355D0E0C083C082C0E090037012B1
:1003E4000348D0E0D082D083C0E0740114120353D8
:1003F400D0E0C000A84612035AD000C000A845129D
:10040400035AD000C000A84412035AD000C000A868
:100414004312035AD000C000A84212035AD000224B
:10042400C0E0740114120355D0E0C083C082C0E060
:10043400900392120348D0E0D082D083C0E07401CC
:1004440014120353D0E0C000A84B12035AD000C0CA
:1004540000A84A12035AD000C000A84912035AD077
:1004640000C000A84812035AD000C000A8471203D5
:100474005AD00022C0E0740114120355D0E0C083A6
:10048400C082C0E09003A3120348D0E0D082D0839E
:10049400C0E0740114120353D0E0C000A841120359
:1004A4005AD000C000A84012035AD000C000A83F90
:1004B40012035AD000C000A83E12035AD000C00054
:1004C400A83D12035AD0002275C80075CB0075CA26
:1004D40000D2AD22C2CFC0E0054CE54C7002054D00
:1004E400D0E0321204CC12031ED2AF2275817F12E7
:1004F40004E7D280C201C202C203C0E07401141234
:100504000355D0E0C083C082C0E09003B412034816
:10051400D0E0D082D083C2CA75CC0075CD00754CB2
:1005240000754D00C2CFD2CAE54D54FE7034208010
:10053400F7E54D54FE702B3080F7C2CA75CC0075B8
:10054400CD00754C00754D00C2CFD2CAE54D54FEA6
:1005540070102080F7E54D54FE70073080F7C2CA52
:10056400801FC0E0740114120353D0E0C083C08222
:10057400C0E0900381120348D0E0D082D08302050A
:100584001AE5CC45CD454C454D60D785CC3085CD5D
:1005940031854C32854D3375342D753500753600F3
:1005A4007537001201A812002E853C46853B45850F
:1005B4003A4485394385384275349B75350275361E
:1005C4000075370012023512002E853C41853B40F0
:1005D400853A3F85393E85383D85CC3085CD31859A
:1005E4004C32854D3375342D7535007536007537AD
:1005F400001201A812029E7530007531CA75329A34
:1006040075333B12023512002E853C4B853B4A85DF
:100614003A4985394885384720C515C0027A3212CF
:1006240002CFD00220C50930C5FDD201C202C203E7
:1006340020A615C0027A321202CFD00220A60930B9
:10064400A6FDD202C201C20320A315C0027A32124F
:1006540002CFD00220A30930A3FDC201C202D203FB
:060664001203C302051A97
:00000001FF
