:0300000002019D5D
:03002B000200F7D9
:10002E00C00078B10000D8FCD00022C000C0017919
:10003E002D78A6D8FED9FADAF6D001D00022D2B3A6
:10004E0012002EC2B322A2E792B7A2E692B6A2E5A2
:10005E0092B5A2E492B412004C12002EA2E392B713
:10006E00A2E292B6A2E192B5A2E092B412004C22A4
:10007E00D2B2020054C2B2020054C2B374331200A0
:10008E008374331200837432120083742812008337
:10009E00740C1200837401120083C0027A021200E3
:1000AE0039D00222E493600612007EA380F6224429
:1000BE00404480020083C0E0E8C4540F4430120074
:1000CE007EE8540F443012007ED0E02250657269F3
:1000DE006F642F34352E32316E733A200075C8009E
:1000EE0075CB0075CA00D2AD22C2CFC0E00530E597
:1000FE003070020531D0E032E4780079007A007B6E
:10010E00007C007D20E5CC33F5CCE5CD33F5CDE597
:10011E003033F530E53133F531E838D4F8E939D4F8
:10012E00F9EA3AD4FAEB3BD4FBEC3CD4FCDDD62214
:10013E00ECC4540F443012007EEC540F44301200C5
:10014E007EEBC4540F443012007EEB540F44301239
:10015E00007EEAC4540F443012007EEA540F44303D
:10016E0012007EE9C4540F443012007EE9540F444D
:10017E003012007EE8C4540F443012007EE8540F53
:10018E00443012007E221200EB120088D2AF22758C
:10019E00817F120194D280C0E07401141200BFD08E
:1001AE00E0C083C082C0E09000DA1200B2D0E0D08E
:1001BE0082D083C2CA75CC0075CD00753000753102
:1001CE0000C2CF2080FD3080FDD2CA2080FD30805D
:1001DE00FDC2CAC0E07401141200BDD0E0120106C7
:0501EE0012013E80CE6D
:00000001FF
