:030000000203FEFA
:10000300C00078B10000D8FCD00022C000C0017944
:100013002D78A6D8FED9FADAF6D001D00022D2B3D1
:10002300120003C2B322A2E792B7A2E692B6A2E5F8
:1000330092B5A2E492B4120021120003A2E392B794
:10004300A2E292B6A2E192B5A2E092B412002122FA
:10005300D2B2020029C2B2020029C2B37433120021
:10006300587433120058743212005874281200580E
:10007300740C1200587401120058C0027A02120064
:100083000ED00222E4936006120053A380F62244AA
:10009300404480020058C0E0E8C4540F44301200CA
:0C00A30053E8540F4430120053D0E02208
:1000AF00C0E0C0D0C000C001C002E4F53EF53FF58E
:1000BF0040F541F5427A20E539A2E779047836E632
:1000CF0033F608D9FA7905783EE636D4F608D9F929
:1000DF00DAE5D002D001D000D0D0D0E022C0E0C00D
:1000EF00D0C000C001C002E4F53EF53FF540F54138
:1000FF00F5427A20E539A2E779047836E633F60837
:10010F00D9FA7905783EC0D0E6243320E70224D00F
:10011F0020E30224FDD0D033F608D9EADAD6D00294
:10012F00D001D000D0D0D0E022C0E0C0D0C000C0FD
:10013F0001C0027A207905C37842E613C0D030E7B8
:10014F000224D030E30224FDF618D0D0D9EC790484
:10015F007839E613F618D9FADADBD002D001D000DD
:10016F00D0D0D0E022C0E0C0D0E536253AF536E554
:10017F0037353BF537E538353CF538E539353DF55D
:10018F0039D0D0D0E022C0E0C0D0C3E536953AF5E3
:10019F0036E537953BF537E538953CF538E5399534
:1001AF003DF539D0D0D0E022C0E0C0D0C3E53695C0
:1001BF003AE537953BE538953CE539953D9201D0C9
:1001CF00D0D0E022C0E0C0D0C3E53A9536E53B95EC
:1001DF0037E53C9538E53D95399201D0D0D0E022F6
:1001EF00C0E0C0D0C201C3E53A95367014E53B9527
:1001FF0037700EE53C95387008E53D95397002D2A1
:10020F0001D0D0D0E0221201EF2001030201D3224E
:10021F001201EF2001030201B722C0E0C0F0C0D0ED
:10022F00C000C001C002C003E536853AF0A4F8A9AA
:10023F00F0E537853AF0A429F9E435F0FAE536858B
:10024F003BF0A429F9E5F03AFAE433FBE538853AB7
:10025F00F0A42AFAE5F03BFBE537853BF0A42AFA38
:10026F00E5F03BFBE536853CF0A42AFAE5F03BFBD5
:10027F00E539853AF0A42BFBE538853BF0A42BFB41
:10028F00E537853CF0A42BFBE536853DF0A42BFB31
:10029F008B398A3889378836D003D002D001D00005
:1002AF00D0D0D0F0D0E022C0E0C0D0C000C001C09C
:1002BF0002C003C0047C20E4F8F9FAFBC3E536332F
:1002CF00F536E53733F537E53833F538E53933F5B6
:1002DF0039E833F8E933F9EA33FAEB33FBC3E8953E
:1002EF003AE9953BEA953CEB953D4013E8953AF892
:1002FF00E9953BF9EA953CFAEB953DFB433601DC7A
:10030F00BBD004D003D002D001D000D0D0D0E02297
:10031F0085363A85373B85383C85393D22E536C5EC
:10032F003AF536E537C53BF537E538C53CF538E5E1
:06033F0039C53DF539222D
:10034500506C6179657220413A20202020202020C0
:1003550000506C6179657220423A202020202020CF
:1003650020007AB079FA78A6D8FED9FADAF622759D
:10037500C80075CB0075CA0022E4780079007A00C0
:100385007B10E5CC33F5CCE5CD33F5CDE838D4F8A5
:10039500E939D4F9EA3AD4FADBE822EA540F4430D1
:1003A500120053E9C4540F4430120053E9540F446A
:1003B50030120053E8C4540F4430120053E8540F70
:1003C500443012005322E53420000260062499804F
:1003D500022401D4F534E4C201D20222E53520001D
:1003E500026006249980022401D4F535E4C201D2C5
:1003F500022212037412005D2275817F1203F7D267
:10040500A0D2A1C0E0740114120094D0E0C083C052
:1004150082C0E0900345120087D0E0D082D083C02F
:10042500E0740114120092D0E0C083C082C0E09055
:100435000356120087D0E0D082D083C2CA75CC00A3
:1004450075CD0020A0FD30A0FD7864D2CA20A0FDA6
:1004550030A0FDD8F8C2CA85CC3085CD3185CC36E3
:1004650085CD37753800753900753A40753B1F7570
:100475003C00753D001201D320010280030203CB2D
:10048500C0E0740B14120094D0E012037E1203A096
:10049500C2CA75CC0075CD0020A1FD30A1FD7864E0
:1004A500D2CA20A1FD30A1FDD8F8C2CA85CC3285BB
:1004B500CD3385CC3685CD37753800753900753A1D
:1004C50080753B3E753C00753D001201D32001024D
:1004D50080030203E1C0E0740B14120092D0E01215
:0804E500037E1203A002044093
:00000001FF
