:03000000020431C6
:10000300C0E0C0D0C000C001C002E4F538F539F546
:100013003AF53BF53C7A20E533A2E779047830E6FC
:1000230033F608D9FA79057838E636D4F608D9F9DB
:10003300DAE5D002D001D000D0D0D0E022C0E0C0B9
:10004300D0C000C001C002E4F538F539F53AF53BFC
:10005300F53C7A20E533A2E779047830E633F608F5
:10006300D9FA79057838C0D0E6243320E70224D0C2
:1000730020E30224FDD0D033F608D9EADAD6D00241
:10008300D001D000D0D0D0E022C0E0C0D0C000C0AA
:1000930001C0027A207905C3783CE613C0D030E76B
:1000A3000224D030E30224FDF618D0D0D9EC790431
:1000B3007833E613F618D9FADADBD002D001D00090
:1000C300D0D0D0E022C0E0C0D0E5302534F530E513
:1000D300313535F531E5323536F532E5333537F53A
:1000E30033D0D0D0E022C0E0C0D0C3E5309534F5A2
:1000F30030E5319535F531E5329536F532E5339511
:1001030037F533D0D0D0E022C0E0C0D0C3E530957E
:1001130034E5319535E5329536E53395379201D09F
:10012300D0D0E022C0E0C0D0C3E5349530E53595AA
:1001330031E5369532E53795339201D0D0D0E022C0
:10014300C0E0C0D0C201C3E53495307014E53595E5
:1001530031700EE53695327008E53795337002D26B
:1001630001D0D0D0E0221201432001030201272253
:1001730012014320010302010B22C0E0C0F0C0D0F2
:10018300C000C001C002C003E5308534F0A4F8A963
:10019300F0E5318534F0A429F9E435F0FAE530854A
:1001A30035F0A429F9E5F03AFAE433FBE532853476
:1001B300F0A42AFAE5F03BFBE5318535F0A42AFAF1
:1001C300E5F03BFBE5308536F0A42AFAE5F03BFB8E
:1001D300E5338534F0A42BFBE5328535F0A42BFB06
:1001E300E5318536F0A42BFBE5308537F0A42BFBF6
:1001F3008B338A3289318830D003D002D001D000CA
:10020300D0D0D0F0D0E022C0E0C0D0C000C001C048
:1002130002C003C0047C20E4F8F9FAFBC3E53033E1
:10022300F530E53133F531E53233F532E53333F586
:1002330033E833F8E933F9EA33FAEB33FBC3E895F0
:1002430034E99535EA9536EB95374013E89534F85C
:10025300E99535F9EA9536FAEB9537FB433001DC3E
:10026300BBD004D003D002D001D000D0D0D0E02244
:1002730085303485313585323685333722E530C5CF
:1002830034F530E531C535F531E532C536F532E5BE
:0602930033C537F53322EC
:10029900C00078B10000D8FCD00022C000C00179AC
:1002A9002D78A6D8FED9FADAF6D001D00022D2B339
:1002B900120299C2B322A2E792B7A2E692B6A2E5C8
:1002C90092B5A2E492B41202B7120299A2E392B7CC
:1002D900A2E292B6A2E192B5A2E092B41202B722CA
:1002E900D2B20202BFC2B20202BFC2B37433120257
:1002F900EE74331202EE74321202EE74281202EE18
:10030900740C1202EE74011202EEC0027A02120299
:10031900A4D00222E49360061202E9A380F62244E3
:100329004044800202EEC0E0E8C4540F4430120297
:10033900E9E8540F44301202E9D0E02279650065FA
:100349007900E58954F04401F589758CEA758AE8E4
:1003590075F4EA75F2E8D28C22853D30853E318507
:100369003F328540337534FD75354375360375372E
:100379000012017D7534C375359E753626753700B3
:1003890085303D85313E85323F85334022C0027A32
:10039900321202A4D002C0027AFA1202A4D002C018
:1003A900027AFA1202A4D002C0E074011412032ADC
:1003B900D0E0C083C082C0E090034512031DD0E0A5
:1003C900D082D0832202039675F4EA75F2E8D291BD
:1003D900C29122C0E074011412032AD0E0C083C084
:1003E90082C0E090034512031DD0E0D082D083C0C3
:1003F900027AFA1202A4D002C0027AFA1202A4D036
:1004090002C0027AFA1202A4D002C0027AFA1202D7
:10041900A4D00222D28C20C5FD858C3D753E017584
:100429003F87858A40C28C2275817F12034B120255
:10043900F3C28C758A00758C00C202753D00753E49
:1004490000753F0075400012041DC0E074011412CC
:100459000328D0E0C083C082C0E090034812031D86
:10046900D0E0D082D083120362E53EA2E39200027B
:1004790003DC80030203CE0204537534807535B260
:060489007536E675370E22
:00000001FF
