:030000000203DF19
:03000B000203DC11
:10000E00C0E0C0D0C000C001C002E4F538F539F53B
:10001E003AF53BF53C7A20E533A2E779047830E6F1
:10002E0033F608D9FA79057838E636D4F608D9F9D0
:10003E00DAE5D002D001D000D0D0D0E022C0E0C0AE
:10004E00D0C000C001C002E4F538F539F53AF53BF1
:10005E00F53C7A20E533A2E779047830E633F608EA
:10006E00D9FA79057838C0D0E6243320E70224D0B7
:10007E0020E30224FDD0D033F608D9EADAD6D00236
:10008E00D001D000D0D0D0E022C0E0C0D0C000C09F
:10009E0001C0027A207905C3783CE613C0D030E760
:1000AE000224D030E30224FDF618D0D0D9EC790426
:1000BE007833E613F618D9FADADBD002D001D00085
:1000CE00D0D0D0E022C0E0C0D0E5302534F530E508
:1000DE00313535F531E5323536F532E5333537F52F
:1000EE0033D0D0D0E022C0E0C0D0C3E5309534F597
:1000FE0030E5319535F531E5329536F532E5339506
:10010E0037F533D0D0D0E022C0E0C0D0C3E5309573
:10011E0034E5319535E5329536E53395379201D094
:10012E00D0D0E022C0E0C0D0C3E5349530E535959F
:10013E0031E5369532E53795339201D0D0D0E022B5
:10014E00C0E0C0D0C201C3E53495307014E53595DA
:10015E0031700EE53695327008E53795337002D260
:10016E0001D0D0D0E02212014E2001030201322232
:10017E0012014E20010302011622C0E0C0F0C0D0D1
:10018E00C000C001C002C003E5308534F0A4F8A958
:10019E00F0E5318534F0A429F9E435F0FAE530853F
:1001AE0035F0A429F9E5F03AFAE433FBE53285346B
:1001BE00F0A42AFAE5F03BFBE5318535F0A42AFAE6
:1001CE00E5F03BFBE5308536F0A42AFAE5F03BFB83
:1001DE00E5338534F0A42BFBE5328535F0A42BFBFB
:1001EE00E5318536F0A42BFBE5308537F0A42BFBEB
:1001FE008B338A3289318830D003D002D001D000BF
:10020E00D0D0D0F0D0E022C0E0C0D0C000C001C03D
:10021E0002C003C0047C20E4F8F9FAFBC3E53033D6
:10022E00F530E53133F531E53233F532E53333F57B
:10023E0033E833F8E933F9EA33FAEB33FBC3E895E5
:10024E0034E99535EA9536EB95374013E89534F851
:10025E00E99535F9EA9536FAEB9537FB433001DC33
:10026E00BBD004D003D002D001D000D0D0D0E02239
:10027E0085303485313585323685333722E530C5C4
:10028E0034F530E531C535F531E532C536F532E5B3
:06029E0033C537F53322E1
:1002A400C00078B10000D8FCD00022C000C00179A1
:1002B4002D78A6D8FED9FADAF6D001D00022D2B32E
:1002C4001202A4C2B322A2E792B7A2E692B6A2E5B2
:1002D40092B5A2E492B41202C21202A4A2E392B7AB
:1002E400A2E292B6A2E192B5A2E092B41202C222B4
:1002F400D2B20202CAC2B20202CAC2B37433120236
:10030400F974331202F974321202F974281202F9E0
:10031400740C1202F974011202F9C0027A02120278
:10032400AFD00222E49360061202F4A380F62244C2
:100334004044800202F9C0E0E8C4540F4430120281
:10034400F4E8540F44301202F4D0E02279650065D9
:100354007900853D30853E31853F328540337534A3
:10036400FD7535437536037537001201887534C33E
:1003740075359E75362675370085303D85313E8549
:10038400323F85334022C002AA3D1202AFD002C0E0
:1003940002AA3E1202AFD002C002AA3F1202AFD09C
:1003A40002C002AA401202AFD00222D28C20C5FDA4
:1003B400858C3D753E01753F87858A40C28C22E558
:1003C4008954F04401F589758CEA758A6175F4EAFB
:1003D40075F261D2A9D28C22B2913275817F120357
:1003E400C31202FE1203AFC28CE4F58AF58CD2AFBD
:1003F400120356E53EA2E3920012038AC28C200047
:100404002575F4EB75F269C0E0740114120333D05E
:10041400E0C083C082C0E0900353120328D0E0D030
:1004240082D08302044C75F4EA75F261C0E0740171
:1004340014120333D0E0C083C082C0E09003501292
:100444000328D0E0D082D083D28CC0027AFA120280
:10045400AFD002C0027AFA1202AFD002C0027AFA16
:100464001202AFD002C0027AFA1202AFD002C28CDA
:030474000203F48C
:00000001FF
