:0300000002013CBE
:10000300C00078B10000D8FCD00022C000C0017944
:100013002D78A6D8FED9FADAF6D001D00022D2B3D1
:10002300120003C2B322A2E792B7A2E692B6A2E5F8
:1000330092B5A2E492B4120021120003A2E392B794
:10004300A2E292B6A2E192B5A2E092B412002122FA
:10005300D2B2020029C2B2020029C2B37433120021
:10006300587433120058743212005874281200580E
:10007300740C1200587401120058C0027A02120064
:100083000ED00222E4936006120053A380F62244AA
:10009300404480020058C0E0E8C4540F44301200CA
:0C00A30053E8540F4430120053D0E02208
:1000AF00506572696F6420413A2020202020202063
:1000BF0000506572696F6420423A20202020202072
:1000CF0020007AB079FA78A6D8FED9FADAF6227536
:1000DF00C80075CB0075CA0022E4780079007A0059
:1000EF007B10E5CC33F5CCE5CD33F5CDE838D4F83E
:1000FF00E939D4F9EA3AD4FADBE822EA540F44306A
:10010F00120053E9C4540F4430120053E9540F4402
:10011F0030120053E8C4540F4430120053E8540F08
:10012F004430120053221200DE12005D2275817FCF
:10013F00120135D2A0D2A1C0E0740114120094D0E4
:10014F00E0C083C082C0E09000AF120087D0E0D043
:10015F0082D083C0E0740114120092D0E0C083C03B
:10016F0082C0E09000C0120087D0E0D082D083C25E
:10017F00CA75CC0075CD0020A0FD30A0FDD2CA20DD
:10018F00A0FD30A0FDC2CA85CC3085CD31C0E07452
:10019F000B14120094D0E01200E812010AC2CA75C3
:1001AF00CC0075CD0020A1FD30A1FDD2CA20A1FD4C
:1001BF0030A1FDC2CA85CC3285CD33C0E0740B149B
:0D01CF00120092D0E01200E812010A80A296
:00000001FF
